:1000000052C0DEC16BC06AC069C068C067C066C04C
:1000100065C064C063C062C061C060C05FC00403EB
:10002000090418036D0069007400780065006C0015
:1000300061002E0063006F006D0014034D006F001F
:1000400072007300650020006B00650079001201EA
:10005000100100000008424231E1000101020001EC
:1000600009022200010100801909040000010300B7
:100070000000092101010001222300070581030876
:10008000000A05010906A101050719E029E7150085
:1000900025017501950881029501750825651900EE
:1000A00029658100C00011241FBECFE5D2E0DEBF6C
:1000B000CDBF10E0A0E6B0E0E4E1FDE002C00590B5
:1000C0000D92A636B107D9F710E0A6E6B0E001C060
:1000D0001D92A93CB107E1F724D31AC691CF85B789
:1000E000836085BF8BB780648BBF8BE480939F0058
:1000F0008AE580939E0008951F93DC01162F80915E
:100100009E0084FF07C080919F0098E88927809314
:100110009F0003C08AE580939E00912FE0EAF0E003
:100120008D91819391501916DCF380EA90E0612F54
:1001300030D11C5F10939E001F9108951F93CF93A1
:10014000DF939091AF00935097FDA6C02091AC0033
:100150008091AB008D3209F09DC0983009F09AC0B3
:10016000CCE0D0E0C21BD109CD54DF4F83EC8093AB
:1001700093008AE580936000109267008881807602
:1001800021F0CE0197D2282F7CC09A8110929C003A
:100190008981882321F410929D0022E06CC0853073
:1001A00019F49093B00066C0863009F04FC08B817F
:1001B000813041F48EE490E09093AE008093AD00E6
:1001C00022E140C0823041F480E690E09093AE009E
:1001D0008093AD0022E236C08330F9F48A8188230F
:1001E00041F48EE190E09093AE008093AD0024E066
:1001F00029C0813041F482E290E09093AE00809378
:10020000AD0028E11FC08230E1F48AE390E09093D2
:10021000AE008093AD0024E115C0813241F482E745
:1002200090E09093AE008093AD0029E00BC0823245
:1002300041F482E890E09093AE008093AD0023E219
:1002400001C020E080E4809367001BC0883021F467
:1002500021E082EB90E011C0893019F49093B20054
:1002600009C08A3011F421E006C08B3019F48BE408
:1002700080939F0020E08CE990E09093AE00809303
:10028000AD008F81882321F48E81821708F4282FF6
:10029000209361001092AF008091600084FF49C0FC
:1002A000809161008F3F09F444C0182F893008F015
:1002B00018E0811B809361008091930098E8892762
:1002C00080939300112341F12091AD003091AE0055
:1002D0008091670086FF0DC0A4E9B0E080E090E067
:1002E000F901E80FF91FE491ED9301961817C1F792
:1002F00008C0912FD901E4E9F0E08D9181939150EC
:10030000E1F71150812F90E01F5F0196820F931F3C
:100310009093AE008093AD0084E990E0612F39D0D6
:10032000612F6C5F6C3019F08FEF809361006093E8
:10033000600094E186B3857031F49150D9F7109242
:10034000B0001092AA0010E0992309F411E0809106
:100350006600811729F0112309F474D41093660004
:10036000DF91CF911F910895A82FB92F80E090E0E1
:1003700041E050EA609530E009C02D9182279795C1
:10038000879510F084279527305EC8F36F5FA8F338
:100390000895EADF8D939D930895A6E08827992715
:1003A000AA9569F00197E1F3B099FCCFB09BFECF1D
:1003B00081E09927A6B3019611F0A570D9F70895A9
:1003C000CF93CFB7CF93C395B09BE9F7B09B0BC04A
:1003D000B09B09C0B09B07C0B09B05C0B09B03C0D9
:1003E000B09B01C0D5C00F92DF93C091AC00DD2758
:1003F000CD54DF4F012EB09B03C0DF910F90E6CFAD
:100400002F930F931F934F932FEF4F6F06B300FB64
:1004100020F95F933F9350E03BE065C016B301269F
:10042000502950FDC89556B3012700FB25F92F73BD
:1004300006B3B1F05027102710FB26F906B2223080
:10044000F0F000C016B3012700FB27F90126502960
:1004500006B22430E8F54F77206816B30000F6CFD7
:1004600050274F7D206206B2102F000000C006B357
:1004700000265029102710FB26F906B2E2CF4F7B49
:1004800006B3206400C0DACF01265029157006B2E9
:1004900069F14E7F2160012F16B328C00026502934
:1004A0004D7F06B22260102F29C0012650294B7FB4
:1004B00006B22460012F2DC016B301265029477FB4
:1004C0002860000006B22EC04F7E06B3206130C007
:1004D000422706B3499300265029102706B24FEF52
:1004E00010FB20F9297F16B379F2157059F1012616
:1004F000502906B2012700FB21F9237F06B371F2D0
:10050000002650293150D0F006B2102710FB22F9F6
:10051000277E16B351F201265029012700FB06B2AF
:1005200023F92F7C49F2000006B3102710FB24F9B1
:100530000026502906B22F7939F270CF10E41ABF85
:10054000002719C03B503195C31BD04010E41ABF9F
:100550000881033C09F10B34F9F02091AA001981BC
:10056000110F1213EDCF4A81441F093651F10D329C
:1005700011F0013E29F70093B1003F915F914F9137
:100580001F910F912F91DF910F90CAB7C6FD1BCF1E
:10059000CF91CFBFCF9118952091B100222369F35D
:1005A0001091AF00112379F534307AF13093AF0018
:1005B0002093AB001091AC003BE0311B3093AC00BA
:1005C00024C00091AF000130F4F40AE54F7049F403
:1005D0003091600034FD1AC000936000C3E9D0E0A0
:1005E00019C030919E0034FD11C000939E00CFE9E8
:1005F000D0E010C0052710E000C021C0052710E0A2
:10060000C89508BB14C03AE501C032ED032EC0E026
:10061000D0E032E017B31560C09A08B317BB55E0BD
:1006200020E84FEF20FF052708BB279517951C3FB3
:1006300028F700004552B0F720FF0527279508BB93
:1006400017951C3FB8F629913A9561F70A7F1091EA
:10065000B000110F08BBC250D04011F01093AA0097
:1006600010E41ABF016017B31A7F402F4A7F54E08D
:100670005A95F1F708BB17BB48BB7FCF982FE09185
:100680007F00F091800080E0EF37F80739F4319770
:10069000F0938000E0937F008FEF8083E0917F00F4
:1006A000F091800012923197F0938000E0937F00E8
:1006B00090830895FC018BE690E09093AE008093C8
:1006C000AD0080818076803251F581818130B1F436
:1006D000E0917F00F0918000309719F480E090E085
:1006E00007C09081992311F480E002C080916E00D0
:1006F00080936B0090936C0082E00895823041F407
:100700008DE690E09093AE008093AD0081E0089577
:100710008A3029F4838180936D0080E0089580E021
:100720000895BF92CF92DF92EF92FF920F931F93A3
:1007300080E090E0D7D28F3F09F081BFB89A20E0E7
:1007400043EB51EFCA010197F1F72F5F2431D1F745
:10075000B898B99AC49A2EE088E190E00FB6F89460
:10076000A89581BD0FBE21BD83E083BF80E489BD14
:100770008BE080BF10926E00E1E9F0E001C01292C0
:1007800080E0E138F807D9F7CF011E2F092FE09359
:1007900091009093920017B887ED86B9A0DC789409
:1007A00074E0E72E60E2F62E5DE2D52ECC24CA94EA
:1007B00047EDB42EA895C2DC80919E0084FF26C030
:1007C000E0917F00F0918000309701F190819923B2
:1007D00011F480E002C080916E0080936B009093D2
:1007E0006C008BE690E062E087DCE0917F00F091A6
:1007F00080003196F0938000E0937F0031978181F3
:100800008F3F21F41092800010927F0008B602FE04
:10081000F3C1E8BE90916800B49923C082E18ABD1B
:100820004091630080916200242F30E0280F311D39
:100830009F5F909368009150892F90E082179307F3
:1008400031F4409368008AE219DFC092640090910D
:10085000680080916300981708F0CEC11092640080
:10086000CBC1992369F11ABCE0919100F0919200FB
:1008700080E0E139F80709F180916300981770F082
:10088000108201C0129280E0E138F807D9F781E8C0
:1008900090E090939200809391000FC0809162004D
:1008A0009F012F5F3F4F981718F48EE2808301C09D
:1008B000D0823093920020939100109268009CC1E6
:1008C0001ABC809164008F5F80936400815010F4A3
:1008D000809364002091640030E08091620090E099
:1008E00001962817390709F07BC110926E0080919C
:1008F00081008E3209F0B7C0809182008E3209F0FB
:1009000060C0809183008E3271F5809184008E32B8
:10091000B1F4809185008E3239F48091860088236D
:1009200009F04FC182E24CC18D3239F480918600CA
:10093000882309F046C181E243C18BE041C18D3279
:1009400081F4809185008E3209F43BC18D3239F4F7
:1009500080918600882309F034C180E231C189E1A9
:100960002FC186E12DC18D3251F5809184008E32E8
:1009700039F480918500882309F023C189E020C1E2
:100980008D32D9F4809185008D3239F480918600C2
:10099000882309F016C18FE113C18E3209F011C10D
:1009A000809186008E3209F00CC1809187008823E7
:1009B00009F007C1F0926E0087C088E101C18CE0A8
:1009C000FFC08D3209F04DC0809183008E3231F529
:1009D000809184008E3239F480918500882309F05B
:1009E000F0C08FE0EDC08D32B9F4809185008E3279
:1009F00009F0E7C0809186008D3231F48091870044
:100A0000882311F487E3DCC080918700882309F0F4
:100A1000D8C0F0926E0049C085E1D2C08D32F9F4A1
:100A2000809184008E3239F480918500882309F00A
:100A3000C8C083E1C5C08D3281F4809185008823D0
:100A400011F48DE0BDC08D3209F0BBC080918600ED
:100A5000882309F0B6C08EE1B3C08AE1B1C084E05A
:100A6000AFC088E0ADC08D3209F0ABC0809182008C
:100A70008E3209F04CC0809183008E3271F58091E6
:100A800084008E32B1F4809185008E3239F48091E9
:100A90008600882309F095C083E292C08D3239F434
:100AA00080918600882309F08CC08EE289C085E0A1
:100AB00087C08D3281F4809185008E3239F4809127
:100AC0008600882309F07DC088E37AC08D3209F45E
:100AD00078C08BE175C087E073C08D32B1F480912E
:100AE00084008E3239F480918500882309F069C032
:100AF00086E066C08D3239F480918500882309F044
:100B000060C08CE15DC08EE05BC081E159C08D3278
:100B100009F055C0809183008E3249F580918400A0
:100B20008E32D9F480918500882311F48DE148C07C
:100B30008E3239F480918600882309F042C084E225
:100B40003FC08D32F1F5809186008D32D1F58091D4
:100B500087008823B1F586E333C08D3231F480916C
:100B60008500882371F584E12BC08AE029C08D328D
:100B700021F5809184008E3251F4809185008E326F
:100B800001F5809186008823E1F485E219C08D3259
:100B900091F4809185008D3231F480918600882314
:100BA00081F487E20DC08E3261F480918600882343
:100BB00041F486E205C082E103C080E101C087E123
:100BC0005DDDE0919100F0919200108201C01292DF
:100BD00080E0E138F807D9F7109391000093920074
:100BE0009091640080916300981731F480916800BF
:100BF000891710F48CE242DD349BDCCD24B135B191
:100C00008091690090916A000596821B930B0B9767
:100C1000B8F030936A0020936900C9018F5B92405D
:100C20009695879596958795282F2C5E209363003F
:100C300023E0969587952A95E1F78C5F8093620073
:100C4000B6B8B8CDDF92EF92FF920F931F93CF9378
:100C5000DF93F89400E0E0E8DE2EEE24FF241D2D63
:100C6000100F11BF9ADBEC0189E0C433D8070CF0F8
:100C7000102FD6940894E11CF11C88E0E816F104CA
:100C800011F0012FECCF115011BF1F5FE12EFF2497
:100C90000894E11CF11C13C080DB9C0124533940F3
:100CA00037FF03C0309521953F4F2C173D0714F0B7
:100CB0009E0101C011B781B78F5F81BFE90181B784
:100CC00090E0E816F90644F711BF789461B780E028
:100CD00090E010D0DF91CF911F910F91FF90EF9096
:100CE000DF900895E199FECF9FBB8EBBE09A9927D4
:100CF0008DB30895262FE199FECF1CBA9FBB8EBB02
:100D00002DBB0FB6F894E29AE19A0FBE01960895B2
:040D1000F894FFCF85
:060D14005AFF092DFF004B
:00000001FF
