:1000000052C0DEC16BC06AC069C068C067C066C04C
:1000100065C064C063C062C061C060C05FC00403EB
:10002000090418036D0069007400780065006C0015
:1000300061002E0063006F006D0014034D006F001F
:1000400072007300650020006B00650079001201EA
:10005000100100000008424231E1000101020001EC
:1000600009022200010100801909040000010300B7
:100070000000092101010001222300070581030876
:10008000000A05010906A101050719E029E7150085
:1000900025017501950881029501750825651900EE
:1000A00029658100C00011241FBECFE5D2E0DEBF6C
:1000B000CDBF10E0A0E6B0E0E2E9FCE002C00590B0
:1000C0000D92A436B107D9F710E0A4E6B0E001C064
:1000D0001D92A63CB107E1F724D3D9C591CF85B7CE
:1000E000836085BF8BB780648BBF8BE480939C005B
:1000F0008AE580939B0008951F93DC01162F809161
:100100009B0084FF07C080919C0098E8892780931A
:100110009C0003C08AE580939B00912FEDE9F0E0FD
:100120008D91819391501916DCF38DE990E0612F48
:1001300030D11C5F10939B001F9108951F93CF93A4
:10014000DF939091AC00935097FDA6C02091A90039
:100150008091A8008D3209F09DC0983009F09AC0B6
:10016000CCE0D0E0C21BD109C055DF4F83EC8093B7
:1001700090008AE580936000109265008881807607
:1001800021F0CE0197D2282F7CC09A81109299003D
:100190008981882321F410929A0022E06CC0853076
:1001A00019F49093AD0066C0863009F04FC08B8182
:1001B000813041F48EE490E09093AB008093AA00EC
:1001C00022E140C0823041F480E690E09093AB00A1
:1001D0008093AA0022E236C08330F9F48A81882312
:1001E00041F48EE190E09093AB008093AA0024E06C
:1001F00029C0813041F482E290E09093AB0080937B
:10020000AA0028E11FC08230E1F48AE390E09093D5
:10021000AB008093AA0024E115C0813241F482E74B
:1002200090E09093AB008093AA0029E00BC082324B
:1002300041F482E890E09093AB008093AA0023E21F
:1002400001C020E080E4809365001BC0883021F469
:1002500021E08FEA90E011C0893019F49093AF004B
:1002600009C08A3011F421E006C08B3019F48BE408
:1002700080939C0020E089E990E09093AB0080930C
:10028000AA008F81882321F48E81821708F4282FF9
:10029000209361001092AC008091600084FF49C0FF
:1002A000809161008F3F09F444C0182F893008F015
:1002B00018E0811B809361008091900098E8892765
:1002C00080939000112341F12091AA003091AB005E
:1002D0008091650086FF0DC0A1E9B0E080E090E06C
:1002E000F901E80FF91FE491ED9301961817C1F792
:1002F00008C0912FD901E1E9F0E08D9181939150EF
:10030000E1F71150812F90E01F5F0196820F931F3C
:100310009093AB008093AA0081E990E0612F39D0DF
:10032000612F6C5F6C3019F08FEF809361006093E8
:10033000600094E186B3857031F49150D9F7109242
:10034000AD001092A70010E0992309F411E080910C
:100350006400811729F0112309F433D41093640049
:10036000DF91CF911F910895A82FB92F80E090E0E1
:1003700041E050EA609530E009C02D9182279795C1
:10038000879510F084279527305EC8F36F5FA8F338
:100390000895EADF8D939D930895A6E08827992715
:1003A000AA9569F00197E1F3B099FCCFB09BFECF1D
:1003B00081E09927A6B3019611F0A570D9F70895A9
:1003C000CF93CFB7CF93C395B09BE9F7B09B0BC04A
:1003D000B09B09C0B09B07C0B09B05C0B09B03C0D9
:1003E000B09B01C0D5C00F92DF93C091A900DD275B
:1003F000C055DF4F012EB09B03C0DF910F90E6CFB9
:100400002F930F931F934F932FEF4F6F06B300FB64
:1004100020F95F933F9350E03BE065C016B301269F
:10042000502950FDC89556B3012700FB25F92F73BD
:1004300006B3B1F05027102710FB26F906B2223080
:10044000F0F000C016B3012700FB27F90126502960
:1004500006B22430E8F54F77206816B30000F6CFD7
:1004600050274F7D206206B2102F000000C006B357
:1004700000265029102710FB26F906B2E2CF4F7B49
:1004800006B3206400C0DACF01265029157006B2E9
:1004900069F14E7F2160012F16B328C00026502934
:1004A0004D7F06B22260102F29C0012650294B7FB4
:1004B00006B22460012F2DC016B301265029477FB4
:1004C0002860000006B22EC04F7E06B3206130C007
:1004D000422706B3499300265029102706B24FEF52
:1004E00010FB20F9297F16B379F2157059F1012616
:1004F000502906B2012700FB21F9237F06B371F2D0
:10050000002650293150D0F006B2102710FB22F9F6
:10051000277E16B351F201265029012700FB06B2AF
:1005200023F92F7C49F2000006B3102710FB24F9B1
:100530000026502906B22F7939F270CF10E41ABF85
:10054000002719C03B503195C31BD04010E41ABF9F
:100550000881033C09F10B34F9F02091A7001981BF
:10056000110F1213EDCF4A81441F093651F10D329C
:1005700011F0013E29F70093AE003F915F914F913A
:100580001F910F912F91DF910F90CAB7C6FD1BCF1E
:10059000CF91CFBFCF9118952091AE00222369F360
:1005A0001091AC00112379F534307AF13093AC001E
:1005B0002093A8001091A9003BE0311B3093A900C3
:1005C00024C00091AC000130F4F40AE54F7049F406
:1005D0003091600034FD1AC000936000C0E9D0E0A3
:1005E00019C030919B0034FD11C000939B00CCE9F1
:1005F000D0E010C0052710E000C021C0052710E0A2
:10060000C89508BB14C03AE501C032ED032EC0E026
:10061000D0E032E017B31560C09A08B317BB55E0BD
:1006200020E84FEF20FF052708BB279517951C3FB3
:1006300028F700004552B0F720FF0527279508BB93
:1006400017951C3FB8F629913A9561F70A7F1091EA
:10065000AD00110F08BBC250D04011F01093A7009D
:1006600010E41ABF016017B31A7F402F4A7F54E08D
:100670005A95F1F708BB17BB48BB7FCF982FE09185
:100680007C00F0917D0080E0EC37F80739F4319779
:10069000F0937D00E0937C008FEF8083E0917C00FD
:1006A000F0917D0012923197F0937D00E0937C00F1
:1006B00090830895FC0188E690E09093AB008093CE
:1006C000AA0080818076803251F581818130B1F439
:1006D000E0917C00F0917D00309719F480E090E08B
:1006E00007C09081992311F480E002C080916B00D3
:1006F000809368009093690082E00895823041F40D
:100700008AE690E09093AB008093AA0081E0089580
:100710008A3029F4838180936A0080E0089580E024
:100720000895BF92CF92DF92EF92FF920F931F93A3
:1007300080E090E096D28F3F09F081BFB89A20E028
:1007400043EB51EFCA010197F1F72F5F2431D1F745
:10075000B898B99AC49A2EE088E190E00FB6F89460
:10076000A89581BD0FBE21BD82E18ABD13BE80E484
:1007700089BD8BE080BF10926B00EEE8F0E001C015
:10078000129280E0EE37F807D9F7CF011E2F092F1C
:10079000E0938E0090938F00A2DC789434E0D32E07
:1007A00020E2F22E9DE2E92E83E0C82EBB24BA940B
:1007B000A895C4DC80919B0084FF26C0E0917C005A
:1007C000F0917D00309701F19081992311F480E040
:1007D00002C080916B00809368009093690088E666
:1007E00090E062E089DCE0917C00F0917D00319640
:1007F000F0937D00E0937C00319781818F3F21F45D
:1008000010927D0010927C0008B602FED1CFD8BEB7
:1008100080916600B49915C0C3BE8F5F8093660057
:100820008150863331F4E09266008AE227DFB0928D
:100830006700809166008D3208F0BACF1092670091
:10084000B7CF882339F113BEE0918E00F0918F006D
:1008500090E0EE38F907D9F08D3260F0108201C0D7
:10086000129280E0EE37F807D9F710938E000093CC
:100870008F000DC09F012F5F3F4F893018F48EE22B
:10088000808301C0E08230938F0020938E0010920D
:1008900066008ECF13BE809167008F5F80936700E4
:1008A000815010F480936700809167008A3009F0CE
:1008B0007BC110926B0080917E008E3209F0B7C030
:1008C00080917F008E3209F060C0809180008E326E
:1008D00071F5809181008E32B1F4809182008E3268
:1008E00039F480918300882309F04FC182E24CC122
:1008F0008D3239F480918300882309F046C181E26A
:1009000043C18BE041C18D3281F4809182008E32EF
:1009100009F43BC18D3239F480918300882309F0BA
:1009200034C180E231C189E12FC186E12DC18D3210
:1009300051F5809181008E3239F4809182008823B4
:1009400009F023C189E020C18D32D9F48091820061
:100950008D3239F480918300882309F016C18FE12C
:1009600013C18E3209F011C1809183008E3209F0DB
:100970000CC180918400882309F007C1F0926B00BC
:1009800087C088E101C18CE0FFC08D3209F04DC005
:10099000809180008E3231F5809181008E3239F461
:1009A00080918200882309F0F0C08FE0EDC08D3285
:1009B000B9F4809182008E3209F0E7C08091830003
:1009C0008D3231F480918400882311F487E3DCC0F8
:1009D00080918400882309F0D8C0F0926B0049C050
:1009E00085E1D2C08D32F9F4809181008E3239F4E4
:1009F00080918200882309F0C8C083E1C5C08D3290
:100A000081F480918200882311F48DE0BDC08D3285
:100A100009F0BBC080918300882309F0B6C08EE145
:100A2000B3C08AE1B1C084E0AFC088E0ADC08D3210
:100A300009F0ABC080917F008E3209F04CC08091EC
:100A400080008E3271F5809181008E32B1F48091F8
:100A500082008E3239F480918300882309F095C09A
:100A600083E292C08D3239F480918300882309F0AB
:100A70008CC08EE289C085E087C08D3281F4809180
:100A800082008E3239F480918300882309F07DC082
:100A900088E37AC08D3209F478C08BE175C087E0B5
:100AA00073C08D32B1F4809181008E3239F480911F
:100AB0008200882309F069C086E066C08D3239F46F
:100AC00080918200882309F060C08CE15DC08EE0D7
:100AD0005BC081E159C08D3209F055C08091800022
:100AE0008E3249F5809181008E32D9F48091820056
:100AF000882311F48DE148C08E3239F4809183004F
:100B0000882309F042C084E23FC08D32F1F5809124
:100B100083008D32D1F5809184008823B1F586E37E
:100B200033C08D3231F480918200882371F584E1E5
:100B30002BC08AE029C08D3221F5809181008E3250
:100B400051F4809182008E3201F5809183008823D8
:100B5000E1F485E219C08D3291F4809182008D32EA
:100B600031F480918300882381F487E20DC08E32B6
:100B700061F480918300882341F486E205C082E11C
:100B800003C080E101C087E179DDE0918E00F09142
:100B90008F00108201C0129290E0EE37F907D9F76A
:100BA00010938E0000938F00809167008D3209F0C2
:100BB000FFCD809166008D3208F0FACD8CE25EDDCB
:100BC000F7CDDF92EF92FF920F931F93CF93DF93B6
:100BD000F89400E040E8D42EEE24FF241D2D100FE1
:100BE00011BFDBDBEC0189E0C433D8070CF0102F18
:100BF000D6940894E11CF11C88E0E816F10411F089
:100C0000012FECCF115011BF1F5FE12EFF2408947C
:100C1000E11CF11C13C0C1DB9C012453394037FF98
:100C200003C0309521953F4F2C173D0714F09E01CE
:100C300001C011B781B78F5F81BFE90181B790E033
:100C4000E816F90644F711BF789461B780E090E0A8
:100C500010D0DF91CF911F910F91FF90EF90DF9017
:100C60000895E199FECF9FBB8EBBE09A99278DB383
:100C70000895262FE199FECF1CBA9FBB8EBB2DBBDA
:100C80000FB6F894E29AE19A0FBE01960895F8948F
:020C9000FFCF94
:040C92005AFF092DCF
:00000001FF
