:1000000052C0DEC16BC06AC069C068C067C066C04C
:1000100065C064C063C062C061C060C05FC00403EB
:10002000090418036D0069007400780065006C0015
:1000300061002E0063006F006D0014034D006F001F
:1000400072007300650020006B00650079001201EA
:10005000100100000008424231E1000101020001EC
:1000600009022200010100801909040000010300B7
:100070000000092101010001222300070581030876
:10008000000A05010906A101050719E029E7150085
:1000900025017501950881029501750825651900EE
:1000A00029658100C00011241FBECFE5D2E0DEBF6C
:1000B000CDBF10E0A0E6B0E0ECE8FCE002C00590A7
:1000C0000D92A636B107D9F710E0A6E6B0E001C060
:1000D0001D92A73CB107E1F724D3D6C591CF85B7D0
:1000E000836085BF8BB780648BBF8BE480939D005A
:1000F0008AE580939C0008951F93DC01162F809160
:100100009C0084FF07C080919D0098E88927809318
:100110009D0003C08AE580939C00912FEEE9F0E0FA
:100120008D91819391501916DCF38EE990E0612F47
:1001300030D11C5F10939C001F9108951F93CF93A3
:10014000DF939091AD00935097FDA6C02091AA0037
:100150008091A9008D3209F09DC0983009F09AC0B5
:10016000CCE0D0E0C21BD109CF54DF4F83EC8093A9
:1001700091008AE580936000109267008881807604
:1001800021F0CE0197D2282F7CC09A8110929A003C
:100190008981882321F410929B0022E06CC0853075
:1001A00019F49093AE0066C0863009F04FC08B8181
:1001B000813041F48EE490E09093AC008093AB00EA
:1001C00022E140C0823041F480E690E09093AC00A0
:1001D0008093AB0022E236C08330F9F48A81882311
:1001E00041F48EE190E09093AC008093AB0024E06A
:1001F00029C0813041F482E290E09093AC0080937A
:10020000AB0028E11FC08230E1F48AE390E09093D4
:10021000AC008093AB0024E115C0813241F482E749
:1002200090E09093AC008093AB0029E00BC0823249
:1002300041F482E890E09093AC008093AB0023E21D
:1002400001C020E080E4809367001BC0883021F467
:1002500021E080EB90E011C0893019F49093B00058
:1002600009C08A3011F421E006C08B3019F48BE408
:1002700080939D0020E08AE990E09093AC00809309
:10028000AB008F81882321F48E81821708F4282FF8
:10029000209361001092AD008091600084FF49C0FE
:1002A000809161008F3F09F444C0182F893008F015
:1002B00018E0811B809361008091910098E8892764
:1002C00080939100112341F12091AB003091AC005B
:1002D0008091670086FF0DC0A2E9B0E080E090E069
:1002E000F901E80FF91FE491ED9301961817C1F792
:1002F00008C0912FD901E2E9F0E08D9181939150EE
:10030000E1F71150812F90E01F5F0196820F931F3C
:100310009093AC008093AB0082E990E0612F39D0DC
:10032000612F6C5F6C3019F08FEF809361006093E8
:10033000600094E186B3857031F49150D9F7109242
:10034000AE001092A80010E0992309F411E080910A
:100350006600811729F0112309F430D41093660048
:10036000DF91CF911F910895A82FB92F80E090E0E1
:1003700041E050EA609530E009C02D9182279795C1
:10038000879510F084279527305EC8F36F5FA8F338
:100390000895EADF8D939D930895A6E08827992715
:1003A000AA9569F00197E1F3B099FCCFB09BFECF1D
:1003B00081E09927A6B3019611F0A570D9F70895A9
:1003C000CF93CFB7CF93C395B09BE9F7B09B0BC04A
:1003D000B09B09C0B09B07C0B09B05C0B09B03C0D9
:1003E000B09B01C0D5C00F92DF93C091AA00DD275A
:1003F000CF54DF4F012EB09B03C0DF910F90E6CFAB
:100400002F930F931F934F932FEF4F6F06B300FB64
:1004100020F95F933F9350E03BE065C016B301269F
:10042000502950FDC89556B3012700FB25F92F73BD
:1004300006B3B1F05027102710FB26F906B2223080
:10044000F0F000C016B3012700FB27F90126502960
:1004500006B22430E8F54F77206816B30000F6CFD7
:1004600050274F7D206206B2102F000000C006B357
:1004700000265029102710FB26F906B2E2CF4F7B49
:1004800006B3206400C0DACF01265029157006B2E9
:1004900069F14E7F2160012F16B328C00026502934
:1004A0004D7F06B22260102F29C0012650294B7FB4
:1004B00006B22460012F2DC016B301265029477FB4
:1004C0002860000006B22EC04F7E06B3206130C007
:1004D000422706B3499300265029102706B24FEF52
:1004E00010FB20F9297F16B379F2157059F1012616
:1004F000502906B2012700FB21F9237F06B371F2D0
:10050000002650293150D0F006B2102710FB22F9F6
:10051000277E16B351F201265029012700FB06B2AF
:1005200023F92F7C49F2000006B3102710FB24F9B1
:100530000026502906B22F7939F270CF10E41ABF85
:10054000002719C03B503195C31BD04010E41ABF9F
:100550000881033C09F10B34F9F02091A8001981BE
:10056000110F1213EDCF4A81441F093651F10D329C
:1005700011F0013E29F70093AF003F915F914F9139
:100580001F910F912F91DF910F90CAB7C6FD1BCF1E
:10059000CF91CFBFCF9118952091AF00222369F35F
:1005A0001091AD00112379F534307AF13093AD001C
:1005B0002093A9001091AA003BE0311B3093AA00C0
:1005C00024C00091AD000130F4F40AE54F7049F405
:1005D0003091600034FD1AC000936000C1E9D0E0A2
:1005E00019C030919C0034FD11C000939C00CDE9EE
:1005F000D0E010C0052710E000C021C0052710E0A2
:10060000C89508BB14C03AE501C032ED032EC0E026
:10061000D0E032E017B31560C09A08B317BB55E0BD
:1006200020E84FEF20FF052708BB279517951C3FB3
:1006300028F700004552B0F720FF0527279508BB93
:1006400017951C3FB8F629913A9561F70A7F1091EA
:10065000AE00110F08BBC250D04011F01093A8009B
:1006600010E41ABF016017B31A7F402F4A7F54E08D
:100670005A95F1F708BB17BB48BB7FCF982FE09185
:100680007D00F0917E0080E0ED37F80739F4319776
:10069000F0937E00E0937D008FEF8083E0917D00FA
:1006A000F0917E0012923197F0937E00E0937D00EE
:1006B00090830895FC0189E690E09093AC008093CC
:1006C000AB0080818076803251F581818130B1F438
:1006D000E0917D00F0917E00309719F480E090E089
:1006E00007C09081992311F480E002C080916C00D2
:1006F0008093690090936A0082E00895823041F40B
:100700008BE690E09093AC008093AB0081E008957D
:100710008A3029F4838180936B0080E0089580E023
:100720000895CF92DF92EF92FF920F931F9380E094
:1007300090E094D28F3F09F081BFB89A20E043EB5C
:1007400051EFCA010197F1F72F5F2431D1F7B89823
:10075000B99AC49A2EE088E190E00FB6F894A89573
:1007600081BD0FBE21BD83E083BF80E489BD8BE0E6
:1007700080BF10926C00EFE8F0E001C0129280E0C0
:10078000EF37F807D9F7CF011E2F092FE0938F001D
:1007900090939000A4DC789424E0D22E90E2F92E7D
:1007A0008DE2E82ECC24CA94A895C8DC80919C00E8
:1007B00084FF26C0E0917D00F0917E00309701F12A
:1007C0009081992311F480E002C080916C008093A5
:1007D000690090936A0089E690E062E08DDCE09128
:1007E0007D00F0917E003196F0937E00E0937D00D5
:1007F000319781818F3F21F410927E0010927D000D
:1008000008B602FED1CFD8BE90916800B49916C048
:1008100082E18ABD9F5F909368009150963331F4D6
:10082000E09268008AE22ADFC0926400809168004A
:100830008D3208F0B9CF10926400B6CF992339F108
:100840001ABCE0918F00F091900080E0EF38F8073B
:10085000D9F09D3260F0108201C0129280E0EF3733
:10086000F807D9F710938F00009390000DC09F01F7
:100870002F5F3F4F993018F48EE2808301C0E082F1
:100880003093900020938F00109268008DCF1ABC97
:10089000809164008F5F80936400815010F4809396
:1008A0006400809164008A3009F07BC110926C0072
:1008B00080917F008E3209F0B7C0809180008E3227
:1008C00009F060C0809181008E3271F580918200C4
:1008D0008E32B1F4809183008E3239F4809184009D
:1008E000882309F04FC182E24CC18D3239F48091E6
:1008F0008400882309F046C181E243C18BE041C1F5
:100900008D3281F4809183008E3209F43BC18D32A7
:1009100039F480918400882309F034C180E231C128
:1009200089E12FC186E12DC18D3251F58091820080
:100930008E3239F480918300882309F023C189E045
:1009400020C18D32D9F4809183008D3239F48091A9
:100950008400882309F016C18FE113C18E3209F09B
:1009600011C1809184008E3209F00CC18091850004
:10097000882309F007C1F0926C0087C088E101C1AB
:100980008CE0FFC08D3209F04DC0809181008E3225
:1009900031F5809182008E3239F480918300882372
:1009A00009F0F0C08FE0EDC08D32B9F48091830082
:1009B0008E3209F0E7C0809184008D3231F480914D
:1009C0008500882311F487E3DCC0809185008823AB
:1009D00009F0D8C0F0926C0049C085E1D2C08D32D8
:1009E000F9F4809182008E3239F48091830088235B
:1009F00009F0C8C083E1C5C08D3281F480918300C5
:100A0000882311F48DE0BDC08D3209F0BBC0809108
:100A10008400882309F0B6C08EE1B3C08AE1B1C07A
:100A200084E0AFC088E0ADC08D3209F0ABC08091EA
:100A300080008E3209F04CC0809181008E3271F5B9
:100A4000809182008E32B1F4809183008E3239F42D
:100A500080918400882309F095C083E292C08D3292
:100A600039F480918400882309F08CC08EE289C01B
:100A700085E087C08D3281F4809183008E3239F415
:100A800080918400882309F07DC088E37AC08D328C
:100A900009F478C08BE175C087E073C08D32B1F482
:100AA000809182008E3239F480918300882309F08E
:100AB00069C086E066C08D3239F480918300882356
:100AC00009F060C08CE15DC08EE05BC081E159C07F
:100AD0008D3209F055C0809181008E3249F58091A8
:100AE00082008E32D9F480918300882311F48DE145
:100AF00048C08E3239F480918400882309F042C0C6
:100B000084E23FC08D32F1F5809184008D32D1F5C1
:100B1000809185008823B1F586E333C08D3231F4AE
:100B200080918300882371F584E12BC08AE029C07D
:100B30008D3221F5809182008E3251F480918300B4
:100B40008E3201F5809184008823E1F485E219C09A
:100B50008D3291F4809183008D3231F48091840044
:100B6000882381F487E20DC08E3261F48091840085
:100B7000882341F486E205C082E103C080E101C020
:100B800087E17CDDE0918F00F0919000108201C040
:100B9000129280E0EF37F807D9F710938F00009397
:100BA0009000809164008D3209F0FECD8091680044
:100BB0008D3208F0F9CD8CE261DDF6CDDF92EF9257
:100BC000FF920F931F93CF93DF93F89400E030E8E8
:100BD000D32EEE24FF241D2D100F11BFDEDBEC0100
:100BE00089E0C433D8070CF0102FD6940894E11C88
:100BF000F11C88E0E816F10411F0012FECCF115040
:100C000011BF1F5FE12EFF240894E11CF11C13C0EB
:100C1000C4DB9C012453394037FF03C03095219534
:100C20003F4F2C173D0714F09E0101C011B781B74B
:100C30008F5F81BFE90181B790E0E816F90644F7BC
:100C400011BF789461B780E090E010D0DF91CF9130
:100C50001F910F91FF90EF90DF900895E199FECFE3
:100C60009FBB8EBBE09A99278DB30895262FE199FB
:100C7000FECF1CBA9FBB8EBB2DBB0FB6F894E29A79
:0C0C8000E19A0FBE01960895F894FFCF92
:060C8C005AFF092DFF00D4
:00000001FF
